:100000000C942A000C94DB120C940E130C944113E4
:100010000C9447000C9447000C9447000C94470044
:100020000C9447000C9447000C94BA140C94ED14F3
:100030000C9447000C9447000C9447000C94470024
:100040000C9447000C9447000C9447000C94470014
:100050000C94470011241FBECFE5D8E0DEBFCDBF12
:1000600012E0A0E6B0E0E6ECF6E502C005900D92E5
:10007000A23DB107D9F713E0A2EDB2E001C01D9295
:10008000A630B107E1F70E947E150C94612B0C9409
:100090000000EF92FF920F931F937B018C0120E0F1
:1000A00030E040E05FE40E94490388238CF0C801FF
:1000B000B70120E030E040E05FE40E94C1010E940F
:1000C000A9039B01AC01205030404040504806C07D
:1000D000C801B7010E94A9039B01AC01B901CA0183
:1000E0001F910F91FF90EF900895A0E0B0E0EBE733
:1000F000F0E00C94F32ADC012B01FA019C91923080
:1001000008F439C1EB018881823008F433C194309E
:1001100069F4843009F02FC111969C91119789815F
:10012000981709F428C1A9ECB2E025C1843009F47C
:1001300021C18230A9F4923009F01DC19A01AD01AC
:1001400088E0EA010990AE01E90109929E0181501F
:10015000C1F7E201898111969C918923818308C1AD
:10016000923009F407C112962D903C901397EB0141
:100170008A819B811496AD90BD90CD90DC901797AD
:10018000EC80FD800E811F819101281B390BB90184
:1001900037FF04C066277727621B730B6032710537
:1001A0000CF061C0121613066CF537014801062EDB
:1001B00004C096948794779467940A94D2F721E0C8
:1001C00030E040E050E004C0220F331F441F551FB1
:1001D0006A95D2F721503040404050402E213F21B7
:1001E00040235123211531054105510521F021E01E
:1001F00030E040E050E079018A01E628F72808293C
:1002000019293CC0232BD1F1260E371E350146019A
:10021000062E04C096948794779467940A94D2F734
:1002200021E030E040E050E004C0220F331F441FC3
:10023000551F6A95D2F721503040404050402A2146
:100240003B214C215D21211531054105510521F04E
:1002500021E030E040E050E059016A01A628B728CB
:10026000C828D9280BC0821593052CF01C01AA249C
:10027000BB24650103C0EE24FF24870111969C91E5
:10028000D20111968C91981709F445C0992339F041
:10029000A80197012A193B094C095D0906C0A6016E
:1002A00095012E193F09400B510B57FD08C01182D3
:1002B0003382228224833583468357831DC081E0A5
:1002C00081833382228288279927DC01821B930B4A
:1002D000A40BB50B84839583A683B7830DC0220F2F
:1002E000331F441F551F24833583468357838281E0
:1002F000938101979383828324813581468157813D
:10030000DA01C9010197A109B1098F5F9F4FAF4F72
:10031000BF4328F30BC0918333822282EA0CFB1C7B
:100320000C1D1D1DE482F5820683178383E0808304
:10033000248135814681578157FF1AC0C901AA27F8
:1003400097FDA095BA2F81709070A070B0705695EF
:10035000479537952795822B932BA42BB52B848318
:100360009583A683B7838281938101969383828349
:10037000DF0101C0D201CD01CDB7DEB7E2E10C94BF
:100380000F2BA0E2B0E0E7ECF1E00C94FF2A6983C8
:100390007A838B839C832D833E834F835887E9E048
:1003A000EE2EF12CEC0EFD1ECE010196B7010E943F
:1003B000D2048E010F5E1F4FCE010596B8010E9438
:1003C000D2048A8991E089278A8BC701B801AE01DE
:1003D000475E5F4F0E9475000E94FD03A096E6E015
:1003E0000C941B2BA0E2B0E0E8EFF1E00C94FF2AA4
:1003F00069837A838B839C832D833E834F835887C5
:10040000F9E0EF2EF12CEC0EFD1ECE010196B701A6
:100410000E94D2048E010F5E1F4FCE010596B801D7
:100420000E94D204C701B801AE01475E5F4F0E942F
:1004300075000E94FD03A096E6E00C941B2BA0E241
:10044000B0E0E5E2F2E00C94F32A69837A838B83CF
:100450009C832D833E834F835887CE010196BE0136
:10046000675F7F4F0E94D204CE010596BE016F5E8A
:100470007F4F0E94D2049985923088F0898982301A
:10048000C8F0943019F4823051F404C0843029F457
:10049000923081F489EC92E0C6C0923049F420E0B9
:1004A0009A858A89981321E02A87CE010996BBC0D4
:1004B000823049F420E09A858A89981321E02A8BBA
:1004C000CE014196B0C02D843E844F8458886D88FB
:1004D0007E888F88988CEE24FF248701AA24BB2471
:1004E000650140E050E060E070E0E0E0F0E0C10174
:1004F00081709070892BE9F0E60CF71C081D191D1E
:100500009A01AB012A0D3B1D4C1D5D1D80E090E062
:10051000A0E0B0E0E614F7040805190520F481E036
:1005200090E0A0E0B0E0BA01A901480F591F6A1F8E
:100530007B1FAA0CBB1CCC1CDD1C97FE08C081E0F5
:1005400090E0A0E0B0E0A82AB92ACA2ADB2A3196B6
:10055000E032F10549F0660C771C881C991C569412
:10056000479437942794C3CFFA85EA892B893C892D
:100570008B859C85280F391F2E5F3F4F17C0CA01FE
:1005800081709070892B61F016950795F794E79428
:1005900080E090E0A0E0B0E8E82AF92A0A2B1B2BC3
:1005A00076956795579547952F5F3F4F77FDE7CF36
:1005B0000CC0440F551F661F771F17FD4160EE0CDE
:1005C000FF1C001F111F21503040403090E05907A0
:1005D00090E0690790E4790760F32B8F3C8FDB0193
:1005E000CA018F779070A070B07080349105A1051A
:1005F000B10561F447FD0AC0E114F10401051105DC
:1006000029F0405C5F4F6F4F7F4F40781A8EFE1786
:1006100011F081E08A8F4D8F5E8F6F8F78A383E01A
:10062000898FCE0149960E94FD03A096E2E10C94C9
:100630000F2BA8E1B0E0EFE1F3E00C94FF2A69830F
:100640007A838B839C832D833E834F83588789E0F5
:10065000E82EF12CEC0EFD1ECE010196B7010E9492
:10066000D2048E010F5E1F4FCE010596B8010E9485
:10067000D2048985823040F08989823028F0C70110
:10068000B8010E944A0501C08FEF6896E6E00C941D
:100690001B2BA8E1B0E0EFE4F3E00C94FF2A6983A0
:1006A0007A838B839C832D833E834F83588789E095
:1006B000E82EF12CEC0EFD1ECE010196B7010E9432
:1006C000D2048E010F5E1F4FCE010596B8010E9425
:1006D000D2048985823040F08989823028F0C701B0
:1006E000B8010E944A0501C08FEF6896E6E00C94BD
:1006F0001B2BA8E1B0E0EFE7F3E00C94FF2A69833D
:100700007A838B839C832D833E834F83588789E034
:10071000E82EF12CEC0EFD1ECE010196B7010E94D1
:10072000D2048E010F5E1F4FCE010596B8010E94C4
:10073000D2048985823040F08989823028F0C7014F
:10074000B8010E944A0501C081E06896E6E00C9479
:100750001B2BACE0B0E0EFEAF3E00C94032B6983D1
:100760007A838B839C83CE010196BE016B5F7F4FA2
:100770000E94D2048D81823061F1823050F1843048
:1007800021F48E81882351F12EC02F81388537FDC9
:1007900020C06E812F3131051CF06623F9F023C093
:1007A0008EE190E0821B930B29853A854B855C8511
:1007B00004C056954795379527958A95D2F76623B5
:1007C000B1F050954095309521953F4F4F4F5F4F79
:1007D0000EC020E030E040E050E009C02FEF3FEFD6
:1007E0004FEF5FE704C020E030E040E050E8B9019F
:1007F000CA012C96E2E00C941F2BDF92EF92FF923D
:100800000F931F93FC01E480F58006811781D1804E
:100810008081823048F480E090E0A0E1B0E0E82AF6
:10082000F92A0A2B1B2BA5C0843009F49FC0823003
:1008300021F4EE24FF24870105C0E114F104010531
:10084000110519F4E0E0F0E096C0628173819FEF3A
:10085000623879070CF05BC022E83FEF261B370BAC
:100860002A3131052CF020E030E040E050E02AC091
:10087000B801A701022E04C0769567955795479554
:100880000A94D2F781E090E0A0E0B0E004C0880FC5
:10089000991FAA1FBB1F2A95D2F70197A109B10979
:1008A0008E219F21A023B1230097A105B10521F03E
:1008B00081E090E0A0E0B0E09A01AB01282B392B59
:1008C0004A2B5B2BDA01C9018F779070A070B07052
:1008D00080349105A105B10539F427FF09C0205CDA
:1008E0003F4F4F4F5F4F04C0215C3F4F4F4F5F4F13
:1008F000E0E0F0E02030A0E03A07A0E04A07A0E402
:100900005A0710F0E1E0F0E079018A0127C0603871
:10091000710564F5FB01E158FF4FD801C7018F77DE
:100920009070A070B07080349105A105B10539F4C4
:10093000E7FE0DC080E490E0A0E0B0E004C08FE3EB
:1009400090E0A0E0B0E0E80EF91E0A1F1B1F17FFA1
:1009500005C016950795F794E794319687E01695AC
:100960000795F794E7948A95D1F705C0EE24FF2404
:100970008701EFEFF0E06E2F679566276795902F60
:100980009F77D794DD24D7948E2F8695492F462BB9
:10099000582F5D29B701CA011F910F91FF90EF9069
:1009A000DF900895FC01DB01408151812281622F9B
:1009B0006F7770E0221F2227221F9381892F880FD3
:1009C000822B282F30E0991F9927991F11969C930D
:1009D000119721153105A9F54115510561057105DD
:1009E00011F482E037C082E89FEF13969C938E93B8
:1009F00012979A01AB0167E0220F331F441F551F66
:100A00006A95D1F783E08C930DC0220F331F441FEA
:100A1000551F12968D919C911397019713969C9355
:100A20008E931297203080E0380780E0480780E4FA
:100A3000580758F314962D933D934D935C93179755
:100A400008952F3F310579F4411551056105710570
:100A500019F484E08C93089564FF03C081E08C93C3
:100A600012C01C9210C02F57304013963C932E9307
:100A7000129783E08C9387E0440F551F661F771F02
:100A80008A95D1F7706414964D935D936D937C9322
:100A9000179708951F93DC01FB019C91923008F495
:100AA00047C08081823008F443C0943051F41196DD
:100AB0001C91843099F58181682F70E0611B710968
:100AC0003FC0843021F0923031F48230B9F181811D
:100AD000882389F12DC011961C9111978230F1F075
:100AE00081811817D9F412962D913C911397828128
:100AF00093818217930794F028173907BCF0149656
:100B00008D919D910D90BC91A02D248135814681C0
:100B10005781281739074A075B0718F4112341F05A
:100B20000AC082179307A407B50740F4112319F0F0
:100B300061E070E005C06FEF7FEF02C060E070E041
:100B4000CB011F910895DF93CF93CDB7DEB7A7E216
:100B5000B0E0E7E2F0E080818F778C93A7E2B0E02D
:100B6000E7E2F0E0808180648C93A6E2B0E0E6E208
:100B7000F0E0808181608C93A6E2B0E0E6E2F0E0F4
:100B8000808182608C93A6E2B0E0E6E2F0E08081B2
:100B900084608C93A6E2B0E0E6E2F0E080818068B9
:100BA0008C93CF91DF910895DF93CF930F92CDB7C0
:100BB000DEB78983A7E2B0E0E7E2F0E08081807EE3
:100BC0008C93A7E2B0E0E7E2F0E090818981892B85
:100BD0008C93A6E2B0E0E6E2F0E0808180648C9342
:100BE000E6E2F0E0808182958F70882F90E081703E
:100BF00090700097A9F3A6E2B0E0E6E2F0E0808111
:100C000080618C93E4E2F0E0808191810F90CF913C
:100C1000DF910895DF93CF93CDB7DEB7E9970FB695
:100C2000F894DEBF0FBECDBF89AF81E060E040E049
:100C30000E946D0F81E061E040E00E946D0F89AD80
:100C4000807F8260982F82E0692F0E942C0E81E0C5
:100C500062E041E00E946D0F80E090E0A0E8BFE319
:100C60008DAB9EABAFABB8AF6DA97EA98FA998AD88
:100C700020E030E04AEF54E40E941F02DC01CB0187
:100C800089AB9AABABABBCAB69A97AA98BA99CA980
:100C900020E030E040E85FE30E94790388232CF4F1
:100CA00081E090E098AB8FA73FC069A97AA98BA992
:100CB0009CA920E03FEF4FE757E40E941903181664
:100CC0004CF56DA97EA98FA998AD20E030E040E2F7
:100CD00051E40E941F02DC01CB01BC01CD010E9446
:100CE0004900DC01CB0198AB8FA70FC088EC90E0E6
:100CF0009EA78DA78DA59EA50197F1F79EA78DA70D
:100D00008FA598A9019798AB8FA78FA598A9009751
:100D100069F714C069A97AA98BA99CA90E94490006
:100D2000DC01CB0198AB8FA78FA598A99CA78BA7B7
:100D30008BA59CA50197F1F79CA78BA781E062E0AA
:100D400040E00E946D0F80E090E0A0E8BFE38FA339
:100D500098A7A9A7BAA76FA178A589A59AA520E009
:100D600030E04AEF54E40E941F02DC01CB018BA368
:100D70009CA3ADA3BEA36BA17CA18DA19EA120E0ED
:100D800030E040E85FE30E94790388232CF481E09F
:100D900090E09AA389A33FC06BA17CA18DA19EA1E5
:100DA00020E03FEF4FE757E40E94190318164CF577
:100DB0006FA178A589A59AA520E030E040E251E432
:100DC0000E941F02DC01CB01BC01CD010E94490041
:100DD000DC01CB019AA389A30FC088EC90E098A313
:100DE0008F8F8F8D98A10197F1F798A38F8F89A18D
:100DF0009AA101979AA389A389A19AA1009769F75B
:100E000014C06BA17CA18DA19EA10E944900DC01B0
:100E1000CB019AA389A389A19AA19E8F8D8F8D8DD5
:100E20009E8D0197F1F79E8F8D8F89AD882F90E071
:100E300082959295907F9827807F98278260982F3F
:100E400082E0692F0E942C0E81E062E041E00E9466
:100E50006D0F80E090E0A0E8BFE3898F9A8FAB8FA1
:100E6000BC8F698D7A8D8B8D9C8D20E030E04AEFB0
:100E700054E40E941F02DC01CB018D8B9E8BAF8B53
:100E8000B88F6D897E898F89988D20E030E040E8A9
:100E90005FE30E94790388232CF481E090E09C8B2F
:100EA0008B8B3FC06D897E898F89988D20E03FEFC5
:100EB0004FE757E40E94190318164CF5698D7A8D97
:100EC0008B8D9C8D20E030E040E251E40E941F02B7
:100ED000DC01CB01BC01CD010E944900DC01CB014A
:100EE0009C8B8B8B0FC088EC90E09A8B898B8989C7
:100EF0009A890197F1F79A8B898B8B899C89019745
:100F00009C8B8B8B8B899C89009769F714C06D89AA
:100F10007E898F89988D0E944900DC01CB019C8BD2
:100F20008B8B8B899C89988B8F878F85988901976C
:100F3000F1F7988B8F8781E062E040E00E946D0FAF
:100F400080E090E0A0E8BFE38B879C87AD87BE87F9
:100F50006B857C858D859E8520E030E04AEF54E4EA
:100F60000E941F02DC01CB018F839887A987BA8773
:100F70006F81788589859A8520E030E040E85FE3DD
:100F80000E94790388232CF481E090E09E838D8376
:100F90003FC06F81788589859A8520E03FEF4FE7D4
:100FA00057E40E94190318164CF56B857C858D85D6
:100FB0009E8520E030E040E251E40E941F02DC0107
:100FC000CB01BC01CD010E944900DC01CB019E8315
:100FD0008D830FC088EC90E09C838B838B819C81F8
:100FE0000197F1F79C838B838D819E8101979E836E
:100FF0008D838D819E81009769F714C06F817885FC
:1010000089859A850E944900DC01CB019E838D83EE
:101010008D819E819A83898389819A810197F1F7D5
:101020009A838983E9960FB6F894DEBF0FBECDBFD1
:10103000CF91DF910895DF93CF93CDB7DEB76D9752
:101040000FB6F894DEBF0FBECDBF8D8F81E060E09C
:1010500041E00E946D0F81E061E040E00E946D0F71
:101060008D8D807F8260982F82E0692F0E942C0EE8
:1010700081E062E041E00E946D0F80E090E0A0E03E
:10108000B0E4898F9A8FAB8FBC8F698D7A8D8B8DF1
:101090009C8D20E030E04AEF54E40E941F02DC0106
:1010A000CB018D8B9E8BAF8BB88F6D897E898F899D
:1010B000988D20E030E040E85FE30E9479038823C8
:1010C0002CF481E090E09C8B8B8B3FC06D897E89F6
:1010D0008F89988D20E03FEF4FE757E40E94190376
:1010E00018164CF5698D7A8D8B8D9C8D20E030E043
:1010F00040E251E40E941F02DC01CB01BC01CD01A2
:101100000E944900DC01CB019C8B8B8B0FC088ECCB
:1011100090E09A8B898B89899A890197F1F79A8B4C
:10112000898B8B899C8901979C8B8B8B8B899C8964
:10113000009769F714C06D897E898F89988D0E9408
:101140004900DC01CB019C8B8B8B8B899C89988B14
:101150008F878F8598890197F1F7988B8F8781E02A
:1011600062E040E00E946D0F8D8D882F90E08295A7
:101170009295907F9827807F98278260982F82E0B1
:10118000692F0E942C0E81E062E041E00E946D0F09
:1011900080E090E0A0E0B0E48B879C87AD87BE87BD
:1011A0006B857C858D859E8520E030E04AEF54E498
:1011B0000E941F02DC01CB018F839887A987BA8721
:1011C0006F81788589859A8520E030E040E85FE38B
:1011D0000E94790388232CF481E090E09E838D8324
:1011E0003FC06F81788589859A8520E03FEF4FE782
:1011F00057E40E94190318164CF56B857C858D8584
:101200009E8520E030E040E251E40E941F02DC01B4
:10121000CB01BC01CD010E944900DC01CB019E83C2
:101220008D830FC088EC90E09C838B838B819C81A5
:101230000197F1F79C838B838D819E8101979E831B
:101240008D838D819E81009769F714C06F817885A9
:1012500089859A850E944900DC01CB019E838D839C
:101260008D819E819A83898389819A810197F1F783
:101270009A83898381E062E040E00E946D0F6D9661
:101280000FB6F894DEBF0FBECDBFCF91DF910895AA
:101290000F931F93DF93CF93CDB7DEB7C455D040E4
:1012A0000FB6F894DEBF0FBECDBFFE01EF5AFF4F61
:1012B00080E090E0A8E4B2E480839183A283B383CA
:1012C0008E01035B1F4FFE01EF5AFF4F608171815A
:1012D0008281938120E030E04AEF54E40E941F02B3
:1012E000DC01CB01F80180839183A283B383FE01EB
:1012F000E35BFF4F608171818281938120E030E068
:1013000040E85FE30E947903882344F4FE01E55B33
:10131000FF4F81E090E09183808364C0FE01E35B36
:10132000FF4F608171818281938120E03FEF4FE721
:1013300057E40E94190318160CF043C0FE01EF5A3F
:10134000FF4F608171818281938120E030E040E233
:1013500051E40E941F02DC01CB018E01055B1F4F8F
:10136000BC01CD010E944900DC01CB01F801918351
:1013700080831FC0FE01E75BFF4F88EC90E0918304
:101380008083FE01E75BFF4F808191810197F1F738
:10139000FE01E75BFF4F91838083DE01A55BBF4FBA
:1013A000FE01E55BFF4F80819181019711969C932F
:1013B0008E93FE01E55BFF4F808191810097D1F60E
:1013C00027C08E01055B1F4FFE01E35BFF4F60816D
:1013D0007181828193810E944900DC01CB01F80177
:1013E00091838083DE01A95BBF4FFE01E55BFF4F68
:1013F000808191818D939C93FE01E95BFF4F8081F9
:1014000091810197F1F7FE01E95BFF4F91838083A2
:1014100082E00E940A06FE01ED5BFF4F80E090E053
:10142000A0EFB1E480839183A283B3838E01015C3A
:101430001F4FFE01ED5BFF4F6081718182819381BF
:1014400020E030E04AEF54E40E941F02DC01CB01AF
:10145000F80180839183A283B383FE01FF966081AC
:1014600071818281938120E030E040E85FE30E9457
:10147000790388232CF481E090E09EAF8DAF46C0C5
:10148000FE01FF96608171818281938120E03FEFB0
:101490004FE757E40E941903181664F5FE01ED5B4F
:1014A000FF4F608171818281938120E030E040E2D2
:1014B00051E40E941F02DC01CB01BC01CD010E945E
:1014C0004900DC01CB019EAF8DAF0FC088EC90E0EE
:1014D0009CAF8BAF8BAD9CAD0197F1F79CAF8BAF01
:1014E0008DAD9EAD01979EAF8DAF8DAD9EAD00973A
:1014F00069F716C0FE01FF96608171818281938138
:101500000E944900DC01CB019EAF8DAF8DAD9EAD39
:101510009AAF89AF89AD9AAD0197F1F79AAF89AFCC
:1015200088E20E940A0680E090E0A0E8BFE38DAB6D
:101530009EABAFABB8AF6DA97EA98FA998AD20E0E7
:1015400030E04AEF54E40E941F02DC01CB0189AB7A
:101550009AABABABBCAB69A97AA98BA99CA920E0DB
:1015600030E040E85FE30E94790388232CF481E0B7
:1015700090E098AB8FA73FC069A97AA98BA99CA9D5
:1015800020E03FEF4FE757E40E94190318164CF58F
:101590006DA97EA98FA998AD20E030E040E251E42A
:1015A0000E941F02DC01CB01BC01CD010E94490059
:1015B000DC01CB0198AB8FA70FC088EC90E09EA711
:1015C0008DA78DA59EA50197F1F79EA78DA78FA545
:1015D00098A9019798AB8FA78FA598A9009769F74D
:1015E00014C069A97AA98BA99CA90E944900DC01B1
:1015F000CB0198AB8FA78FA598A99CA78BA78BA58C
:101600009CA50197F1F79CA78BA78CE00E940A0686
:1016100080E090E0A0E8BFE38FA398A7A9A7BAA7AE
:101620006FA178A589A59AA520E030E04AEF54E49F
:101630000E941F02DC01CB018BA39CA3ADA3BEA320
:101640006BA17CA18DA19EA120E030E040E85FE38A
:101650000E94790388232CF481E090E09AA389A367
:101660003FC06BA17CA18DA19EA120E03FEF4FE781
:1016700057E40E94190318164CF56FA178A589A5A7
:101680009AA520E030E040E251E40E941F02DC0114
:10169000CB01BC01CD010E944900DC01CB019AA322
:1016A00089A30FC088EC90E098A38F8F8F8D98A1AD
:1016B0000197F1F798A38F8F89A19AA101979AA317
:1016C00089A389A19AA1009769F714C06BA17CA195
:1016D0008DA19EA10E944900DC01CB019AA389A3A0
:1016E00089A19AA19E8F8D8F8D8D9E8D0197F1F787
:1016F0009E8F8D8F0E94E10D80E090E0A0E0B0E42D
:10170000898F9A8FAB8FBC8F698D7A8D8B8D9C8DD5
:1017100020E030E04AEF54E40E941F02DC01CB01DC
:101720008D8B9E8BAF8BB88F6D897E898F89988DBD
:1017300020E030E040E85FE30E94790388232CF446
:1017400081E090E09C8B8B8B3FC06D897E898F8977
:10175000988D20E03FEF4FE757E40E9419031816D9
:101760004CF5698D7A8D8B8D9C8D20E030E040E2C8
:1017700051E40E941F02DC01CB01BC01CD010E949B
:101780004900DC01CB019C8B8B8B0FC088EC90E077
:101790009A8B898B89899A890197F1F79A8B898B22
:1017A0008B899C8901979C8B8B8B8B899C8900975B
:1017B00069F714C06D897E898F89988D0E944900D0
:1017C000DC01CB019C8B8B8B8B899C89988B8F87C1
:1017D0008F8598890197F1F7988B8F8786E00E9413
:1017E0000A0680E090E0A0E8BFE38B879C87AD8786
:1017F000BE876B857C858D859E8520E030E04AEF35
:1018000054E40E941F02DC01CB018F839887A987D3
:10181000BA876F81788589859A8520E030E040E835
:101820005FE30E94790388232CF481E090E09E839B
:101830008D833FC06F81788589859A8520E03FEF51
:101840004FE757E40E94190318164CF56B857C8509
:101850008D859E8520E030E040E251E40E941F0229
:10186000DC01CB01BC01CD010E944900DC01CB01B0
:101870009E838D830FC088EC90E09C838B838B814B
:101880009C810197F1F79C838B838D819E810197C9
:101890009E838D838D819E81009769F714C06F812F
:1018A000788589859A850E944900DC01CB019E8359
:1018B0008D838D819E819A83898389819A81019705
:1018C000F1F79A838983CC5ADF4F0FB6F894DEBFC5
:1018D0000FBECDBFCF91DF911F910F910895DF9380
:1018E000CF9300D00F92CDB7DEB79B838A83198246
:1018F0000EC08981282F30E08A819B81FC01E20F94
:10190000F31F80810E941B0889818F5F89838981F1
:10191000282F30E08A819B81FC01E20FF31F808138
:10192000882339F70F900F900F90CF91DF91089592
:10193000DF93CF9300D00F92CDB7DEB78A836B834E
:101940008FEF89838A81823010F081E08A838A81D7
:10195000882F90E002960024969587950794969597
:1019600087950794982F802D982F8B81890F8983D5
:1019700089810E940A060F900F900F90CF91DF91FE
:101980000895DF93CF93CDB7DEB72F970FB6F894B6
:10199000DEBF0FBECDBF6E837F83888799874A875E
:1019A0002B871D828E819F81A885B98589839A8323
:1019B000AB83BC838E819F81A885B9850097A105E3
:1019C000B105E9F48A856B850E94980C80E30E943A
:1019D0001B08EEC089819A81AB81BC812AE030E08E
:1019E00040E050E0BC01CD010E94B62ADA01C901F5
:1019F00089839A83AB83BC838D818F5F8D8389813B
:101A00009A81AB81BC810097A105B10519F7CCC0C3
:101A10009B858D81890F982F91508A85692F0E940F
:101A2000980C8E819F81A885B9852AE030E040E03E
:101A300050E0BC01CD010E94B62ADC01CB018C87AD
:101A40009D87AE87BF878C859D85AE85BF85843099
:101A50009105A105B10509F47BC08C859D85AE85F6
:101A6000BF8585309105A105B10548F58C859D851B
:101A7000AE85BF8581309105A105B10509F45CC033
:101A80008C859D85AE85BF8581309105A105B10509
:101A900008F44EC08C859D85AE85BF85823091054A
:101AA000A105B10509F44CC08C859D85AE85BF8527
:101AB00083309105A105B10509F446C060C08C854D
:101AC0009D85AE85BF8587309105A105B10509F4D7
:101AD0004BC08C859D85AE85BF8588309105A1055D
:101AE000B10598F48C859D85AE85BF8585309105BF
:101AF000A105B10589F18C859D85AE85BF858630B0
:101B00009105A105B10561F13AC08C859D85AE8531
:101B1000BF8588309105A105B10551F18C859D8562
:101B2000AE85BF8589309105A105B10529F127C092
:101B300080E30E941B0823C081E30E941B081FC092
:101B400082E30E941B081BC083E30E941B0817C08E
:101B500084E30E941B0813C085E30E941B080FC08A
:101B600086E30E941B080BC087E30E941B0807C086
:101B700088E30E941B0803C089E30E941B088E8132
:101B80009F81A885B9852AE030E040E050E0BC01A3
:101B9000CD010E94B62ADA01C9018E839F83A887EE
:101BA000B9878D8181508D838D81882309F030CF55
:101BB0002F960FB6F894DEBF0FBECDBFCF91DF9149
:101BC0000895DF93CF93CDB7DEB781E00E940A0678
:101BD000CF91DF910895DF93CF9300D000D0CDB7A0
:101BE000DEB789836A838981282F30E03C832B8389
:101BF0008B819C8181309105D1F02B813C812230F9
:101C000031052CF48B819C81009761F01EC02B81E3
:101C10003C812230310581F08B819C81833091059C
:101C200081F013C0EAE3F0E08A8180830EC0E7E32D
:101C3000F0E08A81808309C0E4E3F0E08A81808358
:101C400004C0E1E3F0E08A8180830F900F900F9051
:101C50000F90CF91DF910895DF93CF9300D000D004
:101C6000CDB7DEB789836A838981282F30E03C8332
:101C70002B838B819C8181309105D1F02B813C811C
:101C8000223031052CF48B819C81009761F01EC0BD
:101C90002B813C812230310581F08B819C81833006
:101CA000910581F013C0EBE3F0E08A8180830EC0E0
:101CB000E8E3F0E08A81808309C0E5E3F0E08A810F
:101CC000808304C0E2E3F0E08A8180830F900F906C
:101CD0000F900F90CF91DF910895DF93CF93CDB701
:101CE000DEB727970FB6F894DEBF0FBECDBF89834E
:101CF0006A834B838B81813009F06FC08981282FE3
:101D000030E03F832E838E819F818130910549F1A0
:101D10002E813F81223031052CF48E819F810097E6
:101D200061F0D2C02E813F812230310571F18E8168
:101D30009F8183309105E9F1C7C0AAE3B0E0EAE3EF
:101D4000F0E08081482F8A81282F30E081E090E008
:101D5000022E02C0880F991F0A94E2F7842B8C93FD
:101D6000B3C0A7E3B0E0E7E3F0E08081482F8A81C9
:101D7000282F30E081E090E0022E02C0880F991FEA
:101D80000A94E2F7842B8C939FC0A4E3B0E0E4E3D1
:101D9000F0E08081482F8A81282F30E081E090E0B8
:101DA000022E02C0880F991F0A94E2F7842B8C93AD
:101DB0008BC0A1E3B0E0E1E3F0E08081482F8A81AD
:101DC000282F30E081E090E0022E02C0880F991F9A
:101DD0000A94E2F7842B8C9377C08B81882309F0D7
:101DE00073C08981282F30E03D832C838C819D81B5
:101DF0008130910559F12C813D81223031052CF43F
:101E00008C819D81009769F05FC02C813D812230DB
:101E1000310589F18C819D818330910509F440C0A1
:101E200053C0AAE3B0E0EAE3F0E08081482F8A8162
:101E3000282F30E081E090E0022E02C0880F991F29
:101E40000A94E2F7809584238C933EC0A7E3B0E028
:101E5000E7E3F0E08081482F8A81282F30E081E09D
:101E600090E0022E02C0880F991F0A94E2F7809535
:101E700084238C9329C0A4E3B0E0E4E3F0E0808104
:101E8000482F8A81282F30E081E090E0022E02C0A6
:101E9000880F991F0A94E2F7809584238C9314C0CD
:101EA000A1E3B0E0E1E3F0E08081482F8A81282FB0
:101EB00030E081E090E0022E02C0880F991F0A9462
:101EC000E2F7809584238C9327960FB6F894DEBFB3
:101ED0000FBECDBFCF91DF910895DF93CF93CDB7E4
:101EE000DEB727970FB6F894DEBF0FBECDBF89834C
:101EF0006A834B838B81813009F06FC08981282FE1
:101F000030E03F832E838E819F818130910549F19E
:101F10002E813F81223031052CF48E819F810097E4
:101F200061F0D2C02E813F812230310571F18E8166
:101F30009F8183309105E9F1C7C0ABE3B0E0EBE3EB
:101F4000F0E08081482F8A81282F30E081E090E006
:101F5000022E02C0880F991F0A94E2F7842B8C93FB
:101F6000B3C0A8E3B0E0E8E3F0E08081482F8A81C5
:101F7000282F30E081E090E0022E02C0880F991FE8
:101F80000A94E2F7842B8C939FC0A5E3B0E0E5E3CD
:101F9000F0E08081482F8A81282F30E081E090E0B6
:101FA000022E02C0880F991F0A94E2F7842B8C93AB
:101FB0008BC0A2E3B0E0E2E3F0E08081482F8A81A9
:101FC000282F30E081E090E0022E02C0880F991F98
:101FD0000A94E2F7842B8C9377C08B81882309F0D5
:101FE00073C08981282F30E03D832C838C819D81B3
:101FF0008130910559F12C813D81223031052CF43D
:102000008C819D81009769F05FC02C813D812230D9
:10201000310589F18C819D818330910509F440C09F
:1020200053C0ABE3B0E0EBE3F0E08081482F8A815E
:10203000282F30E081E090E0022E02C0880F991F27
:102040000A94E2F7809584238C933EC0A8E3B0E025
:10205000E8E3F0E08081482F8A81282F30E081E09A
:1020600090E0022E02C0880F991F0A94E2F7809533
:1020700084238C9329C0A5E3B0E0E5E3F0E0808100
:10208000482F8A81282F30E081E090E0022E02C0A4
:10209000880F991F0A94E2F7809584238C9314C0CB
:1020A000A2E3B0E0E2E3F0E08081482F8A81282FAC
:1020B00030E081E090E0022E02C0880F991F0A9460
:1020C000E2F7809584238C9327960FB6F894DEBFB1
:1020D0000FBECDBFCF91DF910895DF93CF9300D096
:1020E00000D00F92CDB7DEB78A836B8319828A81C5
:1020F000282F30E03D832C834C815D814130510598
:1021000041F18C819D818230910534F42C813D8197
:102110002115310561F052C04C815D81423051057D
:1021200051F18C819D8183309105B9F147C0E9E37C
:10213000F0E08081282F30E08B81882F90E0A9018A
:1021400002C0559547958A95E2F7CA018170898347
:1021500035C0E6E3F0E08081282F30E08B81882FC6
:1021600090E0A90102C0559547958A95E2F7CA010A
:102170008170898323C0E3E3F0E08081282F30E081
:102180008B81882F90E0A90102C0559547958A95CB
:10219000E2F7CA018170898311C0E0E3F0E0808139
:1021A000282F30E08B81882F90E0A90102C055953F
:1021B00047958A95E2F7CA018170898389810F90DA
:1021C0000F900F900F900F90CF91DF910895DF93B4
:1021D000CF93CDB7DEB72A970FB6F894DEBF0FBE08
:1021E000CDBF89836A838981282F30E03A87298788
:1021F00089859A858130910509F46DC029853A85D4
:102200002230310509F4C9C089859A85009709F003
:10221000E9C0ABE5B0E0EBE5F0E0808180648C9351
:102220008A81282F30E038872F838F8198858130ED
:10223000910521F12F813885223031052CF48F81D1
:102240009885009761F0CEC02F8138852230310506
:1022500021F18F8198858330910571F1C3C0A5E587
:10226000B0E0E5E5F0E080818E7F8C93A5E5B0E0FD
:10227000E5E5F0E080818D7F8C93B4C0A5E5B0E00A
:10228000E5E5F0E0808181608C93A5E5B0E0E5E5CF
:10229000F0E080818D7F8C93A5C0A5E5B0E0E5E5F9
:1022A000F0E080818E7F8C93A5E5B0E0E5E5F0E07D
:1022B000808182608C9396C0A5E5B0E0E5E5F0E012
:1022C000808181608C93A5E5B0E0E5E5F0E0808158
:1022D00082608C9387C0ABE5B0E0EBE5F0E08081F5
:1022E00080688C938A81282F30E03E832D838D81F6
:1022F0009E818130910521F12D813E812230310571
:102300002CF48D819E81009761F06CC02D813E81FF
:102310002230310521F18D819E818330910571F14B
:1023200061C0A5E5B0E0E5E5F0E080818B7F8C93AE
:10233000A5E5B0E0E5E5F0E08081877F8C9352C0B1
:10234000A5E5B0E0E5E5F0E0808184608C93A5E54B
:10235000B0E0E5E5F0E08081877F8C9343C0A5E5A0
:10236000B0E0E5E5F0E080818B7F8C93A5E5B0E0FF
:10237000E5E5F0E0808188608C9334C0A5E5B0E0AD
:10238000E5E5F0E0808184608C93A5E5B0E0E5E5CB
:10239000F0E0808188608C9325C0ABE5B0E0EBE590
:1023A000F0E0808180628C938A81282F30E03C832A
:1023B0002B838B819C81009731F02B813C812130D4
:1023C000310549F00FC0A4E5B0E0E4E5F0E080811C
:1023D0008F7B8C9307C0A4E5B0E0E4E5F0E080815A
:1023E00080648C932A960FB6F894DEBF0FBECDBFE3
:1023F000CF91DF910895DF93CF9300D00F92CDB7A7
:10240000DEB789838981282F30E03B832A838A8144
:102410009B818130910589F02A813B8122303105F1
:10242000A1F08A819B810097B9F4ABE5B0E0EBE5C0
:10243000F0E080818F7B8C930FC0ABE5B0E0EBE5E3
:10244000F0E080818F778C9307C0ABE5B0E0EBE5DF
:10245000F0E080818F7D8C930F900F900F90CF9143
:10246000DF910895DF93CF9300D0CDB7DEB79A8385
:10247000898389819A819093D3028093D2020F90AD
:102480000F90CF91DF910895DF93CF9300D0CDB718
:10249000DEB79A83898389819A819093D50280934C
:1024A000D4020F900F90CF91DF910895DF93CF93D7
:1024B00000D0CDB7DEB79A83898389819A819093C2
:1024C000D7028093D6020F900F90CF91DF9108959D
:1024D000DF93CF9300D00F92CDB7DEB78983898188
:1024E000282F30E03B832A838A819B8181309105AC
:1024F00089F02A813B8122303105A1F08A819B81BC
:102500000097B9F4AAE5B0E0EAE5F0E080818064E4
:102510008C930FC0AAE5B0E0EAE5F0E08081806826
:102520008C9307C0AAE5B0E0EAE5F0E08081806224
:102530008C930F900F900F90CF91DF910895DF93C0
:10254000CF9300D000D0CDB7DEB78A838A81282F01
:1025500030E03C832B838B819C818130910599F005
:102560002B813C8122303105B1F08B819C81009719
:10257000D1F4EAE5F0E080818295869586958370B6
:102580008170898310C0EAE5F0E08081881F882788
:10259000881F898308C0EAE5F0E0808182958695EE
:1025A00087708170898389810F900F900F900F90B1
:1025B000CF91DF9108951F920F920FB60F921124C1
:1025C0002F933F934F935F936F937F938F939F933B
:1025D000AF93BF93EF93FF93DF93CF93CDB7DEB766
:1025E0008091D2029091D302009729F0E091D2021B
:1025F000F091D3020995CF91DF91FF91EF91BF91B7
:10260000AF919F918F917F916F915F914F913F918A
:102610002F910F900FBE0F901F9018951F920F9241
:102620000FB60F9211242F933F934F935F936F93A5
:102630007F938F939F93AF93BF93EF93FF93DF931A
:10264000CF93CDB7DEB78091D4029091D502009799
:1026500029F0E091D402F091D5020995CF91DF9154
:10266000FF91EF91BF91AF919F918F917F916F916A
:102670005F914F913F912F910F900FBE0F901F9040
:1026800018951F920F920FB60F9211242F933F931C
:102690004F935F936F937F938F939F93AF93BF936A
:1026A000EF93FF93DF93CF93CDB7DEB78091D60240
:1026B0009091D702009729F0E091D602F091D702CD
:1026C0000995CF91DF91FF91EF91BF91AF919F91CC
:1026D0008F917F916F915F914F913F912F910F90CB
:1026E0000FBE0F901F901895DF93CF93CDB7DEB735
:1026F000AFE5B0E0EFE5F0E0808180688C93CF91AA
:10270000DF910895DF93CF93CDB7DEB7AFE5B0E0AB
:10271000EFE5F0E080818F778C93CF91DF91089582
:10272000AF92BF92CF92DF92EF92FF920F931F93DF
:10273000DF93CF93CDB7DEB764970FB6F894DEBFC3
:102740000FBECDBF6D837E838F83988729873A879D
:102750004B875C87ED86FE860F87188BA98ABA8A1D
:10276000CB8ADC8A19821A821B821C8229A13AA197
:102770004BA15CA18D819E81AF81B88579018A01D1
:10278000E81AF90A0A0B1B0B29893A894B895C89DB
:102790008D859E85AF85B889281B390B4A0B5B0B4D
:1027A000C801B7010E94972A7B018C0129853A85CF
:1027B0004B855C858D819E81AF81B885281B390B47
:1027C0004A0B5B0BC801B7010E94D82ADA01C90184
:1027D0009C01AD018D859E85AF85B889820F931FC1
:1027E000A41FB51F89839A83AB83BC8389819A8197
:1027F000AB81BC81BC01CD0164960FB6F894DEBFFD
:102800000FBECDBFCF91DF911F910F91FF90EF9041
:10281000DF90CF90BF90AF900895DF93CF930F924A
:10282000CDB7DEB78983ECE4F0E011821082E6E4F4
:10283000F0E083EC99E091838083EAE4F0E0898121
:10284000882F90E091838083EFE4F0E082E880833A
:10285000EEE4F0E08BE180830F90CF91DF9108955B
:10286000DF93CF93CDB7DEB7A3E5B0E0E3E5F0E0CB
:10287000808180648C93A3E5B0E0E3E5F0E08081A3
:1028800088608C93A3E5B0E0E3E5F0E080818F7E83
:102890008C93A3E5B0E0E3E5F0E0808180628C9367
:1028A000A3E5B0E0E3E5F0E08081887F8C93A3E5C9
:1028B000B0E0E3E5F0E0808182608C93CF91DF911E
:1028C0000895DF93CF9300D00F92CDB7DEB79B83EF
:1028D0008A8319828A819B81009739F08A819B8142
:1028E0009093D9028093D80202C082E089838981C3
:1028F0000F900F900F90CF91DF910895DF93CF93BA
:102900000F92CDB7DEB78983ECE5F0E08981808353
:102910000F90CF91DF910895DF93CF93CDB7DEB7BE
:10292000CF91DF910895DF93CF930F92CDB7DEB7AC
:102930008983A3E5B0E0E3E5F0E08081887F8C93B4
:10294000A3E5B0E0E3E5F0E090818981892B8C93E9
:102950000F90CF91DF910895DF93CF930F92CDB772
:10296000DEB78983E2E5F0E0898180830F90CF9123
:10297000DF9108951F920F920FB60F9211242F939B
:102980003F934F935F936F937F938F939F93AF93F7
:10299000BF93EF93FF93DF93CF93CDB7DEB78091D3
:1029A000D8029091D902009729F0E091D802F091D5
:1029B000D9020995CF91DF91FF91EF91BF91AF912E
:1029C0009F918F917F916F915F914F913F912F9147
:1029D0000F900FBE0F901F9018951F920F920FB679
:1029E0000F9211242F933F934F935F936F937F9395
:1029F0008F939F93AF93BF93EF93FF93DF93CF9307
:102A0000CDB7DEB78091D8029091D902009729F016
:102A1000E091D802F091D9020995CF91DF91FF9111
:102A2000EF91BF91AF919F918F917F916F915F9146
:102A30004F913F912F910F900FBE0F901F901895BF
:102A4000DF93CF930F92CDB7DEB71982898180686B
:102A5000898389818F7B898389818F7D898389811E
:102A60008F7E89838981877F898389818460898337
:102A7000898182608983E0E4F0E089818083E9E2F2
:102A8000F0E083E38083AAE2B0E0EAE2F0E0808154
:102A900080618C93AAE2B0E0EAE2F0E08081886095
:102AA0008C930F90CF91DF910895DF93CF930F9286
:102AB000CDB7DEB78983EBE2F0E080818295869521
:102AC0008770882F90E0817090700097A1F3ECE2FE
:102AD000F0E0898180830F90CF91DF910895DF939B
:102AE000CF93CDB7DEB7EBE2F0E080818823DCF74F
:102AF000ECE2F0E08081CF91DF910895DF93CF93F6
:102B0000CDB7DEB70E948B150E94521610920303B8
:102B10000E94AF28FBCFDF93CF93CDB7DEB782E023
:102B20006FEF0E94EB0D81E06FEF0E94EB0D80E0F4
:102B300060E040E00E946D0E80E061E040E00E94B5
:102B40006D0E83E065E041E00E946D0E83E062E07F
:102B500040E00E946D0E83E062E041E00E946D0F54
:102B600080E062E00E94E71083E699E20E94321260
:102B70000E9474130E94A3050E9430140E94480909
:102B80000E9420150E94C715CF91DF910895DF9311
:102B9000CF93CDB7DEB72E970FB6F894DEBF0FBE3A
:102BA000CDBF80E690E00E946F0C80E090E0AAE745
:102BB000B4E48B879C87AD87BE876B857C858D85CC
:102BC0009E8520E030E04AEF54E40E941F02DC01C1
:102BD000CB018F839887A987BA876F81788589858C
:102BE0009A8520E030E040E85FE30E947903882383
:102BF0002CF481E090E09E838D833FC06F817885C7
:102C000089859A8520E03FEF4FE757E40E9419033A
:102C100018164CF56B857C858D859E8520E030E00F
:102C200040E251E40E941F02DC01CB01BC01CD0156
:102C30000E944900DC01CB019E838D830FC088EC8C
:102C400090E09C838B838B819C810197F1F79C831F
:102C50008B838D819E8101979E838D838D819E8143
:102C6000009769F714C06F81788589859A850E94DD
:102C70004900DC01CB019E838D838D819E819A83E7
:102C8000898389819A810197F1F79A8389830E94C8
:102C9000E10D2E960FB6F894DEBF0FBECDBFCF91DB
:102CA000DF910895DF93CF93CDB7DEB719C0809140
:102CB000EE029091EF029C0180EF92E0B9014AE0B0
:102CC00050E00E943A2B8091F0028F3F81F080917A
:102CD000EE029091EF020F969093EF028093EE0236
:102CE0008091EE029091EF028639910500F3CF9129
:102CF000DF910895DF93CF93CDB7DEB760970FB61E
:102D0000F894DEBF0FBECDBF188A1F860AC08F851C
:102D100098896FEF0E94542B8F8598890196988B24
:102D20008F872091EE023091EF028F85988982176C
:102D3000930768F31092EF021092EE020E94E10DE9
:102D40008DE690E00E946F0C80E090E0AAE7B4E48A
:102D50008B879C87AD87BE876B857C858D859E859F
:102D600020E030E04AEF54E40E941F02DC01CB0176
:102D70008F839887A987BA876F81788589859A8597
:102D800020E030E040E85FE30E94790388232CF4E0
:102D900081E090E09E838D833FC06F817885898537
:102DA0009A8520E03FEF4FE757E40E941903181679
:102DB0004CF56B857C858D859E8520E030E040E27A
:102DC00051E40E941F02DC01CB01BC01CD010E9435
:102DD0004900DC01CB019E838D830FC088EC90E01D
:102DE0009C838B838B819C810197F1F79C838B83E0
:102DF0008D819E8101979E838D838D819E81009719
:102E000069F714C06F81788589859A850E94490089
:102E1000DC01CB019E838D838D819E819A83898382
:102E200089819A810197F1F79A83898360960FB619
:102E3000F894DEBF0FBECDBFCF91DF910895DF9331
:102E4000CF93CDB7DEB70E94E10D80E060E00E9435
:102E5000980C8CE790E00E946F0C81E060E00E948B
:102E6000980C88E890E00E946F0C0E946F15809388
:102E700004030E94E10D80910403CF91DF91089536
:102E80000F931F93DF93CF93CDB7DEB7C854D040D5
:102E90000FB6F894DEBF0FBECDBF8091EE029091C9
:102EA000EF028639910508F48AC089E990E00E9412
:102EB0006F0CFE01ED5BFF4F80E090E0AAE7B4E409
:102EC00080839183A283B3838E01015C1F4FFE0137
:102ED000ED5BFF4F608171818281938120E030E062
:102EE0004AEF54E40E941F02DC01CB01F801808309
:102EF0009183A283B383FE01FF96608171818281F9
:102F0000938120E030E040E85FE30E94790388236A
:102F10002CF481E090E09EAF8DAF46C0FE01FF969D
:102F2000608171818281938120E03FEF4FE757E418
:102F30000E941903181664F5FE01ED5BFF4F6081D6
:102F400071818281938120E030E040E251E40E946F
:102F50001F02DC01CB01BC01CD010E944900DC0154
:102F6000CB019EAF8DAF0FC088EC90E09CAF8BAFD4
:102F70008BAD9CAD0197F1F79CAF8BAF8DAD9EAD46
:102F800001979EAF8DAF8DAD9EAD009769F784C25E
:102F9000FE01FF9660817181828193810E944900C8
:102FA000DC01CB019EAF8DAF8DAD9EAD9AAF89AFE9
:102FB00089AD9AAD0197F1F79AAF89AF6DC289EAF1
:102FC00090E00E946F0C81E060E00E94980CFE018E
:102FD000E85BFF4F10822DC0FE01E85BFF4F808150
:102FE000082F10E00E946F15F801E352FD4F808317
:102FF000FE01E85BFF4F8081882F90E0FC01E352E7
:10300000FD4F80818D30D9F0FE01E85BFF4F80815C
:10301000882F90E0FC01E352FD4F80810E941B0845
:10302000DE01A85BBF4FFE01E85BFF4F80818F5F31
:103030008C93FE01E85BFF4F80818A3068F210922A
:10304000E70280E090E0AAEFB3E48DAB9EABAFABBC
:10305000B8AF6DA97EA98FA998AD20E030E04AEF06
:1030600054E40E941F02DC01CB0189AB9AABABABED
:10307000BCAB69A97AA98BA99CA920E030E040E803
:103080005FE30E94790388232CF481E090E098AB01
:103090008FA73FC069A97AA98BA99CA920E03FEF1F
:1030A0004FE757E40E94190318164CF56DA97EA945
:1030B0008FA998AD20E030E040E251E40E941F0269
:1030C000DC01CB01BC01CD010E944900DC01CB0138
:1030D00098AB8FA70FC088EC90E09EA78DA78DA519
:1030E0009EA50197F1F79EA78DA78FA598A9019797
:1030F00098AB8FA78FA598A9009769F714C069A905
:103100007AA98BA99CA90E944900DC01CB0198AB4C
:103110008FA78FA598A99CA78BA78BA59CA5019786
:10312000F1F79CA78BA70E94E10D89EB90E00E942C
:103130006F0C81E060E00E94980CFE01E95BFF4F9C
:10314000108218C0FE01E95BFF4F8081082F10E05C
:103150000E946F15F801E851FD4F80838AE20E94BA
:103160001B08DE01A95BBF4FFE01E95BFF4F8081B9
:103170008F5F8C93FE01E95BFF4F8081853010F3F8
:103180001092ED0280E090E0AAEFB3E48FA398A73D
:10319000A9A7BAA76FA178A589A59AA520E030E0D4
:1031A0004AEF54E40E941F02DC01CB018BA39CA3D5
:1031B000ADA3BEA36BA17CA18DA19EA120E030E0B8
:1031C00040E85FE30E94790388232CF481E090E0DB
:1031D0009AA389A33FC06BA17CA18DA19EA120E0F1
:1031E0003FEF4FE757E40E94190318164CF56FA103
:1031F00078A589A59AA520E030E040E251E40E943C
:103200001F02DC01CB01BC01CD010E944900DC01A1
:10321000CB019AA389A30FC088EC90E098A38F8F6D
:103220008F8D98A10197F1F798A38F8F89A19AA10B
:1032300001979AA389A389A19AA1009769F714C05D
:103240006BA17CA18DA19EA10E944900DC01CB0154
:103250009AA389A389A19AA19E8F8D8F8D8D9E8D12
:103260000197F1F79E8F8D8F0E94E10D0E94581AF1
:10327000813009F077C089EC90E00E946F0C80E00B
:1032800090E0AAE7B4E4898F9A8FAB8FBC8F698DE9
:103290007A8D8B8D9C8D20E030E04AEF54E40E94C3
:1032A0001F02DC01CB018D8B9E8BAF8BB88F6D899C
:1032B0007E898F89988D20E030E040E85FE30E94AE
:1032C000790388232CF481E090E09C8B8B8B3FC0AA
:1032D0006D897E898F89988D20E03FEF4FE757E415
:1032E0000E94190318164CF5698D7A8D8B8D9C8D73
:1032F00020E030E040E251E40E941F02DC01CB01FB
:10330000BC01CD010E944900DC01CB019C8B8B8B61
:103310000FC088EC90E09A8B898B89899A890197F4
:10332000F1F79A8B898B8B899C8901979C8B8B8B6E
:103330008B899C89009769F7ADC06D897E898F89DB
:10334000988D0E944900DC01CB019C8B8B8B8B8973
:103350009C89988B8F878F8598890197F1F7988B37
:103360008F8798C08091EE029091EF029C018DEDC5
:1033700092E0B9014AE050E00E944A2B8091EE02AF
:103380009091EF020A969C0188EE92E0B90145E027
:1033900050E00E944A2B8091EE029091EF020F962E
:1033A0009093EF028093EE0288ED90E00E946F0C04
:1033B00080E090E0AAE7B4E48B879C87AD87BE8766
:1033C0006B857C858D859E8520E030E04AEF54E456
:1033D0000E941F02DC01CB018F839887A987BA87DF
:1033E0006F81788589859A8520E030E040E85FE349
:1033F0000E94790388232CF481E090E09E838D83E2
:103400003FC06F81788589859A8520E03FEF4FE73F
:1034100057E40E94190318164CF56B857C858D8541
:103420009E8520E030E040E251E40E941F02DC0172
:10343000CB01BC01CD010E944900DC01CB019E8380
:103440008D830FC088EC90E09C838B838B819C8163
:103450000197F1F79C838B838D819E8101979E83D9
:103460008D838D819E81009769F714C06F81788567
:1034700089859A850E944900DC01CB019E838D835A
:103480008D819E819A83898389819A810197F1F741
:103490009A8389830E94E10DC85BDF4F0FB6F894D1
:1034A000DEBF0FBECDBFCF91DF911F910F91089569
:1034B000DF93CF9300D00F92CDB7DEB71A82198277
:1034C0001CC029813A8180EF92E0B9014AE050E0C6
:1034D0000E943A2B1092FA0280EF92E02DED32E03A
:1034E000B9010E942A2B009719F481E08B830FC049
:1034F00089819A810F969A8389832091EE02309177
:10350000EF0289819A8182179307D8F21B828B81FF
:103510000F900F900F90CF91DF9108950F931F930D
:10352000DF93CF93CDB7DEB7AF970FB6F894DEBF7A
:103530000FBECDBF86EE90E00E946F0C81E060E090
:103540000E94980C1FA61EC08FA5082F10E00E9495
:103550006F15F801E352FD4F80838FA5882F90E00F
:10356000FC01E352FD4F80818D3079F08FA5882FCB
:1035700090E0FC01E352FD4F80810E941B088FA563
:103580008F5F8FA78FA58A30F8F21092E70280E054
:1035900090E0AAEFB3E48FA398A7A9A7BAA76FA159
:1035A00078A589A59AA520E030E04AEF54E40E946E
:1035B0001F02DC01CB018BA39CA3ADA3BEA36BA117
:1035C0007CA18DA19EA120E030E040E85FE30E9455
:1035D000790388232CF481E090E09AA389A33FC06B
:1035E0006BA17CA18DA19EA120E03FEF4FE757E4A6
:1035F0000E94190318164CF56FA178A589A59AA504
:1036000020E030E040E251E40E941F02DC01CB01E7
:10361000BC01CD010E944900DC01CB019AA389A322
:103620000FC088EC90E098A38F8F8F8D98A10197A1
:10363000F1F798A38F8F89A19AA101979AA389A3E3
:1036400089A19AA1009769F714C06BA17CA18DA1F3
:103650009EA10E944900DC01CB019AA389A389A104
:103660009AA19E8F8D8F8D8D9E8D0197F1F79E8FE4
:103670008D8F0E94E10D0E94581A882309F077C0AF
:103680008CEF90E00E946F0C80E090E0AAE7B4E439
:10369000898F9A8FAB8FBC8F698D7A8D8B8D9C8D26
:1036A00020E030E04AEF54E40E941F02DC01CB012D
:1036B0008D8B9E8BAF8BB88F6D897E898F89988D0E
:1036C00020E030E040E85FE30E94790388232CF497
:1036D00081E090E09C8B8B8B3FC06D897E898F89C8
:1036E000988D20E03FEF4FE757E40E94190318162A
:1036F0004CF5698D7A8D8B8D9C8D20E030E040E219
:1037000051E40E941F02DC01CB01BC01CD010E94EB
:103710004900DC01CB019C8B8B8B0FC088EC90E0C7
:103720009A8B898B89899A890197F1F79A8B898B72
:103730008B899C8901979C8B8B8B8B899C890097AB
:1037400069F7FAC06D897E898F89988D0E9449003A
:10375000DC01CB019C8B8B8B8B899C89988B8F8711
:103760008F8598890197F1F7988B8F87E5C01EA602
:103770001DA6D8C02DA53EA580EF92E0B9014AE074
:1037800050E00E943A2B80EF92E02DED32E0B9013B
:103790000E942A2B009709F0C0C08DA59EA59CA76A
:1037A0008BA72FC08BA59CA50F969C0180EF92E064
:1037B000B9014AE050E00E943A2B8BA59CA549969E
:1037C0009C018DEF92E0B90145E050E00E943A2B58
:1037D0002BA53CA580EF92E0B9014AE050E00E94A1
:1037E0004A2B8BA59CA50A969C018DEF92E0B9010E
:1037F00045E050E00E944A2B8BA59CA50F969CA704
:103800008BA78091EE029091EF029C012F503040E7
:103810008BA59CA58217930728F28091EE029091C8
:10382000EF020F979093EF028093EE028BE091E00E
:103830000E946F0C80E090E0AAE7B4E48B879C873D
:10384000AD87BE876B857C858D859E8520E030E0C9
:103850004AEF54E40E941F02DC01CB018F8398875A
:10386000A987BA876F81788589859A8520E030E0BD
:1038700040E85FE30E94790388232CF481E090E024
:103880009E838D833FC06F81788589859A8520E0EE
:103890003FEF4FE757E40E94190318164CF56B856C
:1038A0007C858D859E8520E030E040E251E40E94D9
:1038B0001F02DC01CB01BC01CD010E944900DC01EB
:1038C000CB019E838D830FC088EC90E09C838B831B
:1038D0008B819C810197F1F79C838B838D819E81E5
:1038E00001979E838D838D819E81009769F724C007
:1038F0006F81788589859A850E944900DC01CB011A
:103900009E838D838D819E819A83898389819A810B
:103910000197F1F79A8389830FC08DA59EA50F9615
:103920009EA78DA72091EE023091EF028DA59EA556
:103930008217930708F41ECF0E94E10DAF960FB6D1
:10394000F894DEBF0FBECDBFCF91DF911F910F91D5
:1039500008950F931F93DF93CF93CDB7DEB7AE9744
:103960000FB6F894DEBF0FBECDBF0E94E10D1092DE
:10397000050389EA90E00E946F0C81E060E00E94FC
:10398000980C1EA61EC08EA5082F10E00E946F1571
:10399000F801E352FD4F80838EA5882F90E0FC0153
:1039A000E352FD4F80818D3079F08EA5882F90E015
:1039B000FC01E352FD4F80810E941B088EA58F5FA2
:1039C0008EA78EA58A30F8F21092E70280E090E090
:1039D000AAEFB3E48FA398A7A9A7BAA76FA178A568
:1039E00089A59AA520E030E04AEF54E40E941F0226
:1039F000DC01CB018BA39CA3ADA3BEA36BA17CA1D7
:103A00008DA19EA120E030E040E85FE30E947903B1
:103A100088232CF481E090E09AA389A33FC06BA196
:103A20007CA18DA19EA120E03FEF4FE757E40E94CB
:103A3000190318164CF56FA178A589A59AA520E061
:103A400030E040E251E40E941F02DC01CB01BC01E6
:103A5000CD010E944900DC01CB019AA389A30FC0CC
:103A600088EC90E098A38F8F8F8D98A10197F1F744
:103A700098A38F8F89A19AA101979AA389A389A15D
:103A80009AA1009769F714C06BA17CA18DA19EA19A
:103A90000E944900DC01CB019AA389A389A19AA1C4
:103AA0009E8F8D8F8D8D9E8D0197F1F79E8F8D8FBF
:103AB0000E94E10D89EB90E00E946F0C81E060E0D4
:103AC0000E94980C1DA60FC08DA5082F10E00E9423
:103AD0006F15F801E851FD4F80838AE20E941B08B0
:103AE0008DA58F5F8DA78DA5853070F31092ED02A7
:103AF00080E090E0AAEFB3E4898F9A8FAB8FBC8F00
:103B0000698D7A8D8B8D9C8D20E030E04AEF54E4F6
:103B10000E941F02DC01CB018D8B9E8BAF8BB88F77
:103B20006D897E898F89988D20E030E040E85FE3E1
:103B30000E94790388232CF481E090E09C8B8B8B8E
:103B40003FC06D897E898F89988D20E03FEF4FE7D8
:103B500057E40E94190318164CF5698D7A8D8B8DE8
:103B60009C8D20E030E040E251E40E941F02DC0125
:103B7000CB01BC01CD010E944900DC01CB019C8B33
:103B80008B8B0FC088EC90E09A8B898B89899A89FE
:103B90000197F1F79A8B898B8B899C8901979C8B74
:103BA0008B8B8B899C89009769F714C06D897E89FE
:103BB0008F89988D0E944900DC01CB019C8B8B8BF7
:103BC0008B899C89988B8F878F8598890197F1F7CE
:103BD000988B8F870E94E10D1CA61BA63EC02BA5CB
:103BE0003CA580EF92E0B9014AE050E00E943A2BF8
:103BF0001092FA028BA59CA50A969C018DEF92E08B
:103C0000B90145E050E00E943A2B1092020380EF88
:103C100092E02DED32E0B9010E942A2B0097C1F409
:103C20008DEF92E028EE32E0B9010E942A2B009736
:103C300079F488E191E00E946F0C0E9483298093BF
:103C4000DA020E940D2A8093DA020E945A2294C05E
:103C50008BA59CA50F969CA78BA72091EE02309177
:103C6000EF028BA59CA58217930708F4B8CF89E2D1
:103C700091E00E946F0C80E090E0AAE7B4E48B87AB
:103C80009C87AD87BE876B857C858D859E8520E072
:103C900030E04AEF54E40E941F02DC01CB018F8325
:103CA0009887A987BA876F81788589859A8520E06A
:103CB00030E040E85FE30E94790388232CF481E040
:103CC00090E09E838D833FC06F81788589859A853A
:103CD00020E03FEF4FE757E40E94190318164CF518
:103CE0006B857C858D859E8520E030E040E251E447
:103CF0000E941F02DC01CB01BC01CD010E944900E2
:103D0000DC01CB019E838D830FC088EC90E09C8307
:103D10008B838B819C810197F1F79C838B838D81B1
:103D20009E8101979E838D838D819E81009769F787
:103D300014C06F81788589859A850E944900DC01CD
:103D4000CB019E838D838D819E819A838983898116
:103D50009A810197F1F79A838983809105038F5F98
:103D60008093050380910503833019F40E94C71ED8
:103D700003C00E94E10DFDCDAE960FB6F894DEBFF4
:103D80000FBECDBFCF91DF911F910F910895DF93AB
:103D9000CF93CDB7DEB781E064E041E00E946D0FC4
:103DA0000E94E10D86E391E00E946F0CCF91DF91BC
:103DB0000895DF93CF93CDB7DEB76F970FB6F89422
:103DC000DEBF0FBECDBF0E94E10D80E060E00E942B
:103DD000980C84E491E00E946F0C81E060E00E9406
:103DE000980C85E591E00E946F0C0E946F158D8FF5
:103DF0008D8D282F30E03F8F2E8F8E8D9F8D8233BB
:103E0000910509F491C02E8D3F8D2333310509F4BE
:103E100010C18E8D9F8D8133910509F00CC1809169
:103E2000DA02813009F07BC00E94E10D8DE591E05E
:103E30000E946F0C80E090E0AAEFB3E4898F9A8F24
:103E4000AB8FBC8F698D7A8D8B8D9C8D20E030E09F
:103E50004AEF54E40E941F02DC01CB018D8B9E8B44
:103E6000AF8BB88F6D897E898F89988D20E030E087
:103E700040E85FE30E94790388232CF481E090E01E
:103E80009C8B8B8B3FC06D897E898F89988D20E0BC
:103E90003FEF4FE757E40E94190318164CF5698D60
:103EA0007A8D8B8D9C8D20E030E040E251E40E94C1
:103EB0001F02DC01CB01BC01CD010E944900DC01E5
:103EC000CB019C8B8B8B0FC088EC90E09A8B898BFD
:103ED00089899A890197F1F79A8B898B8B899C89BB
:103EE00001979C8B8B8B8B899C89009769F714C0F9
:103EF0006D897E898F89988D0E944900DC01CB01F4
:103F00009C8B8B8B8B899C89988B8F878F859889CD
:103F10000197F1F7988B8F870E94D91E54CF0E948A
:103F200083298093DA024FCF8091DA02882309F047
:103F30007BC00E94E10D8DE691E00E946F0C80E055
:103F400090E0AAEFB3E48B879C87AD87BE876B8533
:103F50007C858D859E8520E030E04AEF54E40E9408
:103F60001F02DC01CB018F839887A987BA876F81F5
:103F7000788589859A8520E030E040E85FE30E94FB
:103F8000790388232CF481E090E09E838D833FC0E9
:103F90006F81788589859A8520E03FEF4FE757E468
:103FA0000E94190318164CF56B857C858D859E85BE
:103FB00020E030E040E251E40E941F02DC01CB012E
:103FC000BC01CD010E944900DC01CB019E838D83A1
:103FD0000FC088EC90E09C838B838B819C81019740
:103FE000F1F79C838B838D819E8101979E838D83C6
:103FF0008D819E81009769F714C06F8178858985CE
:104000009A850E944900DC01CB019E838D838D81BE
:104010009E819A83898389819A810197F1F79A8396
:1040200089830E94D91ECFCE0E940D2A8093DA0286
:10403000CACE0E941C230E94E10D80E060E00E9435
:10404000980C8DE791E00E946F0CBDCEDF93CF936B
:1040500000D000D000D0CDB7DEB71A82198281E03F
:104060000E94D4059A83898389819A81CC01A0E03A
:10407000B0E024EF31E040E050E0BC01CD010E940F
:10408000972ADC01CB01072E7AE0B695A795979584
:1040900087957A95D1F7702D8B839C83AD83BE83F2
:1040A0008B819C81AD81BE81BC01CD0126960FB66E
:1040B000F894DEBF0FBECDBFCF91DF910895DF939F
:1040C000CF9300D00F92CDB7DEB70E94E10D80E014
:1040D00060E00E94980C8DE891E00E946F0C81E0F6
:1040E00060E00E94980C8EE991E00E946F0C0E94A3
:1040F0006F1589838981282F30E03B832A838A8149
:104100009B818233910569F02A813B8123333105FC
:1041100059F08A819B818133910549F40E94A22044
:10412000D4CF0E940A21D1CF0E941C23CECF0E945F
:10413000E10D80E060E00E94980C85EA91E00E9429
:104140006F0CC3CFDF93CF93CDB7DEB727970FB6F2
:10415000F894DEBF0FBECDBF0E942620DC01CB014C
:104160008C319105A105B10548F081E065E041E0A1
:104170000E946D0F81E08093DB0207C081E065E063
:1041800040E00E946D0F1092DB020E94E10D8091D1
:10419000DB02882329F085EB91E09F838E8304C0A6
:1041A00088EB91E09F838E83CE0102966E817F81A2
:1041B0000E94332B80E060E00E94980C8CEB91E031
:1041C0000E946F0C0E942620DC01CB01BC01CD01B6
:1041D00040E027E00E94C10C81E060E00E94980C62
:1041E00083EC91E00E946F0CCE0102960E946F0C4E
:1041F00081E069E00E94980C89EC91E00E946F0CCC
:104200000E946F1589838981813309F0A5CF0E94AF
:104210005F20A2CFDF93CF93CDB7DEB76F970FB6F6
:10422000F894DEBF0FBECDBF0E94E10D80E060E0DC
:104230000E94980C80ED91E00E946F0C81E060E09C
:104240000E94980C8EE991E00E946F0C0E946F15FD
:104250008D8F8D8D282F30E03F8F2E8F8E8D9F8DEF
:104260008233910509F492C02E8D3F8D23333105A1
:1042700009F413C18E8D9F8D8133910509F00FC113
:104280008091DB02882349F481E065E041E00E94EF
:104290006D0F81E08093DB02C7CF0E94E10D8DE5B9
:1042A00091E00E946F0C80E090E0AAE7B4E4898F6F
:1042B0009A8FAB8FBC8F698D7A8D8B8D9C8D20E012
:1042C00030E04AEF54E40E941F02DC01CB018D8BE9
:1042D0009E8BAF8BB88F6D897E898F89988D20E0FA
:1042E00030E040E85FE30E94790388232CF481E00A
:1042F00090E09C8B8B8B3FC06D897E898F89988DD8
:1043000020E03FEF4FE757E40E94190318164CF5E1
:10431000698D7A8D8B8D9C8D20E030E040E251E4F8
:104320000E941F02DC01CB01BC01CD010E944900AB
:10433000DC01CB019C8B8B8B0FC088EC90E09A8BBF
:10434000898B89899A890197F1F79A8B898B8B8957
:104350009C8901979C8B8B8B8B899C89009769F733
:1043600063CF6D897E898F89988D0E944900DC0119
:10437000CB019C8B8B8B8B899C89988B8F878F85AE
:1043800098890197F1F7988B8F874ECF8091DB0248
:10439000813041F481E065E040E00E946D0F1092B1
:1043A000DB0242CF0E94E10D81EE91E00E946F0C92
:1043B00080E090E0AAE7B4E48B879C87AD87BE8756
:1043C0006B857C858D859E8520E030E04AEF54E446
:1043D0000E941F02DC01CB018F839887A987BA87CF
:1043E0006F81788589859A8520E030E040E85FE339
:1043F0000E94790388232CF481E090E09E838D83D2
:104400003FC06F81788589859A8520E03FEF4FE72F
:1044100057E40E94190318164CF56B857C858D8531
:104420009E8520E030E040E251E40E941F02DC0162
:10443000CB01BC01CD010E944900DC01CB019E8370
:104440008D830FC088EC90E09C838B838B819C8153
:104450000197F1F79C838B838D819E8101979E83C9
:104460008D838D819E81009769F714C06F81788557
:1044700089859A850E944900DC01CB019E838D834A
:104480008D819E819A83898389819A810197F1F731
:104490009A8389830E940A21C7CE0E945F2080E010
:1044A00060E00E94980C85EA91E00E946F0C0E94E7
:1044B0005F20BACEDF93CF93CDB7DEB761970FB64B
:1044C000F894DEBF0FBECDBF0E94E10D80E060E03A
:1044D0000E94980C81EF91E00E946F0C81E060E0F7
:1044E0000E94980C8BEF91E00E946F0C0E946F1558
:1044F0008F878F85282F30E0398B288B8889998981
:104500008233910569F0288939892333310559F0BF
:10451000888999898133910549F40E941C2383C0BD
:104520000E94E42380C00E94AF287DC00E94E10D5C
:1045300080E060E00E94980C85EA91E00E946F0C98
:1045400080E090E0AAE7B4E48B879C87AD87BE87C4
:104550006B857C858D859E8520E030E04AEF54E4B4
:104560000E941F02DC01CB018F839887A987BA873D
:104570006F81788589859A8520E030E040E85FE3A7
:104580000E94790388232CF481E090E09E838D8340
:104590003FC06F81788589859A8520E03FEF4FE79E
:1045A00057E40E94190318164CF56B857C858D85A0
:1045B0009E8520E030E040E251E40E941F02DC01D1
:1045C000CB01BC01CD010E944900DC01CB019E83DF
:1045D0008D830FC088EC90E09C838B838B819C81C2
:1045E0000197F1F79C838B838D819E8101979E8338
:1045F0008D838D819E81009769F766CF6F81788565
:1046000089859A850E944900DC01CB019E838D83B8
:104610008D819E819A83898389819A810197F1F79F
:104620009A83898351CF61960FB6F894DEBF0FBE8F
:10463000CDBFCF91DF910895DF93CF93CDB7DEB794
:1046400061970FB6F894DEBF0FBECDBF0E94E10D9B
:1046500080E060E00E94980C8CE092E00E946F0C79
:1046600081E060E00E94980C8CE192E00E946F0C67
:104670000E946F158F878F85282F30E0398B288B0C
:104680008889998982339105C9F02889398923332A
:10469000310534F4888999898133910561F017C017
:1046A000288939892333310561F0888999898433D0
:1046B000910551F00CC00E94D91EC8CF0E94EF276F
:1046C000C5CF0E945F20C2CF0E945A22BFCF0E9456
:1046D000E10D80E060E00E94980C85EA91E00E9484
:1046E0006F0C80E090E0AAE7B4E48B879C87AD87ED
:1046F000BE876B857C858D859E8520E030E04AEF06
:1047000054E40E941F02DC01CB018F839887A987A4
:10471000BA876F81788589859A8520E030E040E806
:104720005FE30E94790388232CF481E090E09E836C
:104730008D833FC06F81788589859A8520E03FEF22
:104740004FE757E40E94190318164CF56B857C85DA
:104750008D859E8520E030E040E251E40E941F02FA
:10476000DC01CB01BC01CD010E944900DC01CB0181
:104770009E838D830FC088EC90E09C838B838B811C
:104780009C810197F1F79C838B838D819E8101979A
:104790009E838D838D819E81009769F757CF6F81AE
:1047A000788589859A850E944900DC01CB019E832A
:1047B0008D838D819E819A83898389819A810197D6
:1047C000F1F79A83898342CFDF93CF93CDB7DEB7DA
:1047D000AF970FB6F894DEBF0FBECDBF8091DA025F
:1047E000882329F085EB91E09FA78EA704C088EB72
:1047F00091E09FA78EA7CE0182966EA57FA50E940D
:10480000332B8091DB02882329F085EB91E09DA773
:104810008CA704C088EB91E09DA78CA7CE014E9693
:104820006CA57DA50E94332B8091DC02882329F0A2
:1048300085EB91E09BA78AA704C088EB91E09BA73A
:104840008AA7CE0186966AA57BA50E94332B0E947B
:10485000E10D80E060E00E94980C8BE292E00E9403
:104860006F0C81E060E00E94980CCE0182960E945D
:104870006F0C81E065E00E94980CCE0186960E9444
:104880006F0C0E942620DC01CB01BC01CD0141E070
:104890002CE00E94C10C80E090E0AAEFB4E4898F84
:1048A0009A8FAB8FBC8F698D7A8D8B8D9C8D20E01C
:1048B00030E04AEF54E40E941F02DC01CB018D8BF3
:1048C0009E8BAF8BB88F6D897E898F89988D20E004
:1048D00030E040E85FE30E94790388232CF481E014
:1048E00090E09C8B8B8B3FC06D897E898F89988DE2
:1048F00020E03FEF4FE757E40E94190318164CF5EC
:10490000698D7A8D8B8D9C8D20E030E040E251E402
:104910000E941F02DC01CB01BC01CD010E944900B5
:10492000DC01CB019C8B8B8B0FC088EC90E09A8BC9
:10493000898B89899A890197F1F79A8B898B8B8961
:104940009C8901979C8B8B8B8B899C89009769F73D
:1049500014C06D897E898F89988D0E944900DC0181
:10496000CB019C8B8B8B8B899C89988B8F878F85B8
:1049700098890197F1F7988B8F870E94E10D80E06D
:1049800060E00E94980C8BE392E00E946F0C81E043
:1049900060E00E94980CCE014E960E946F0C81E060
:1049A0006AE00E94980C89EC91E00E946F0C0E94D2
:1049B0006F158D8F8D8D813319F40E945A220ECF81
:1049C0000E94E10D80E060E00E94980C8FE392E08D
:1049D0000E946F0C80E090E0AAE7B4E48B879C878C
:1049E000AD87BE876B857C858D859E8520E030E018
:1049F0004AEF54E40E941F02DC01CB018F839887A9
:104A0000A987BA876F81788589859A8520E030E00B
:104A100040E85FE30E94790388232CF481E090E072
:104A20009E838D833FC06F81788589859A8520E03C
:104A30003FEF4FE757E40E94190318164CF56B85BA
:104A40007C858D859E8520E030E040E251E40E9427
:104A50001F02DC01CB01BC01CD010E944900DC0139
:104A6000CB019E838D830FC088EC90E09C838B8369
:104A70008B819C810197F1F79C838B838D819E8133
:104A800001979E838D838D819E81009769F7A6CEC5
:104A90006F81788589859A850E944900DC01CB0168
:104AA0009E838D838D819E819A83898389819A815A
:104AB0000197F1F79A83898391CEDF93CF93CDB796
:104AC000DEB762970FB6F894DEBF0FBECDBF888BFE
:104AD0008889282F30E03A8B298B89899A898230FE
:104AE0009105C1F029893A892330310534F4898947
:104AF0009A898130910561F016C029893A8923305D
:104B0000310559F089899A898430910549F00BC0A3
:104B10001F8683C089E18F8780C082E38F877DC035
:104B200084E68F877AC01F860E94E10D8EE492E0B2
:104B30000E946F0C80E090E0AAEFB3E48B879C8723
:104B4000AD87BE876B857C858D859E8520E030E0B6
:104B50004AEF54E40E941F02DC01CB018F83988747
:104B6000A987BA876F81788589859A8520E030E0AA
:104B700040E85FE30E94790388232CF481E090E011
:104B80009E838D833FC06F81788589859A8520E0DB
:104B90003FEF4FE757E40E94190318164CF56B8559
:104BA0007C858D859E8520E030E040E251E40E94C6
:104BB0001F02DC01CB01BC01CD010E944900DC01D8
:104BC000CB019E838D830FC088EC90E09C838B8308
:104BD0008B819C810197F1F79C838B838D819E81D2
:104BE00001979E838D838D819E81009769F730C0E8
:104BF0006F81788589859A850E944900DC01CB0107
:104C00009E838D838D819E819A83898389819A81F8
:104C10000197F1F79A8389831BC08F85882F90E0D5
:104C2000A0E0B0E02FEF30E040E050E0BC01CD016B
:104C30000E94972ADC01CB0124E630E040E050E0FE
:104C4000BC01CD010E94B62ADA01C9010E947E147E
:104C500062960FB6F894DEBF0FBECDBFCF91DF9145
:104C60000895DF93CF93CDB7DEB72E970FB6F894A4
:104C7000DEBF0FBECDBF0E94E10D8DE592E00E9428
:104C80006F0C81E060E00E94980C8EE692E00E943A
:104C90006F0C0E946F158093FC028091FC0285339B
:104CA00019F40E94EF2791C08091FC028533A0F493
:104CB0008091FC02813380F08091FC02813319F4F1
:104CC0001092DC0203C081E08093DC028091FC0240
:104CD00080530E945D2579C00E94E10D8EE492E030
:104CE0000E946F0C80E090E0AAE7B4E48B879C8779
:104CF000AD87BE876B857C858D859E8520E030E005
:104D00004AEF54E40E941F02DC01CB018F83988795
:104D1000A987BA876F81788589859A8520E030E0F8
:104D200040E85FE30E94790388232CF481E090E05F
:104D30009E838D833FC06F81788589859A8520E029
:104D40003FEF4FE757E40E94190318164CF56B85A7
:104D50007C858D859E8520E030E040E251E40E9414
:104D60001F02DC01CB01BC01CD010E944900DC0126
:104D7000CB019E838D830FC088EC90E09C838B8356
:104D80008B819C810197F1F79C838B838D819E8120
:104D900001979E838D838D819E81009769F76BCFEC
:104DA0006F81788589859A850E944900DC01CB0155
:104DB0009E838D838D819E819A83898389819A8147
:104DC0000197F1F79A83898356CF8091FC0285334E
:104DD00009F051CF2E960FB6F894DEBF0FBECDBFAF
:104DE000CF91DF910895AF92BF92CF92DF92EF9271
:104DF000FF920F931F93DF93CF93CDB7DEB76197E9
:104E00000FB6F894DEBF0FBECDBF0E94E10D8DE757
:104E100092E00E946F0C81E060E00E94980C89E8AB
:104E200092E00E946F0C80E00E94D405998B888BE1
:104E300088899989CC01A0E0B0E000D000D0EDB71E
:104E4000FEB7319680839183A283B38360E070E0E4
:104E500080E090E02FEF33E040E050E0EE24FF24CC
:104E600087010F2EFFE0AF2EF0E0BF2EF0E0CF2E37
:104E7000F0E0DF2EF02D0E9490130F900F900F9016
:104E80000F90DC01CB018F878F858E3020F081E081
:104E90008093FB0211C08F858B3020F082E08093DD
:104EA000FB020AC08F85863020F083E08093FB02EE
:104EB00003C084E08093FB028091FB02813019F4EF
:104EC0001092DC0203C081E08093DC028091FB023F
:104ED0000E945D2580E090E0AAE7B4E48B879C8780
:104EE000AD87BE876B857C858D859E8520E030E013
:104EF0004AEF54E40E941F02DC01CB018F839887A4
:104F0000A987BA876F81788589859A8520E030E006
:104F100040E85FE30E94790388232CF481E090E06D
:104F20009E838D833FC06F81788589859A8520E037
:104F30003FEF4FE757E40E94190318164CF56B85B5
:104F40007C858D859E8520E030E040E251E40E9422
:104F50001F02DC01CB01BC01CD010E944900DC0134
:104F6000CB019E838D830FC088EC90E09C838B8364
:104F70008B819C810197F1F79C838B838D819E812E
:104F800001979E838D838D819E81009769F714C060
:104F90006F81788589859A850E944900DC01CB0163
:104FA0009E838D838D819E819A83898389819A8155
:104FB0000197F1F79A8389830E94EF2761960FB6D4
:104FC000F894DEBF0FBECDBFCF91DF911F910F913F
:104FD000FF90EF90DF90CF90BF90AF900895DF9358
:104FE000CF93CDB7DEB760970FB6F894DEBF0FBE94
:104FF000CDBF0E94E10D8BE992E00E946F0C81E031
:1050000060E00E94980C8BEA92E00E946F0C0E9474
:105010006F158093FC028091FC02282F30E0388BC2
:105020002F878F8598898233910569F02F8538897C
:105030002333310559F08F8598898133910549F4DF
:105040000E94F32683C00E94312680C00E941C2348
:105050007DC00E94E10D80E060E00E94980C8FE32B
:1050600092E00E946F0C80E090E0AAE7B4E48B87A6
:105070009C87AD87BE876B857C858D859E8520E06E
:1050800030E04AEF54E40E941F02DC01CB018F8321
:105090009887A987BA876F81788589859A8520E066
:1050A00030E040E85FE30E94790388232CF481E03C
:1050B00090E09E838D833FC06F81788589859A8536
:1050C00020E03FEF4FE757E40E94190318164CF514
:1050D0006B857C858D859E8520E030E040E251E443
:1050E0000E941F02DC01CB01BC01CD010E944900DE
:1050F000DC01CB019E838D830FC088EC90E09C8304
:105100008B838B819C810197F1F79C838B838D81AD
:105110009E8101979E838D838D819E81009769F783
:1051200068CF6F81788589859A850E944900DC0166
:10513000CB019E838D838D819E819A838983898112
:105140009A810197F1F79A83898353CF60960FB6BE
:10515000F894DEBF0FBECDBFCF91DF910895DF93EE
:10516000CF93CDB7DEB760970FB6F894DEBF0FBE12
:10517000CDBF0E941F1780910403282F30E0388B89
:105180002F878F8598898233910569F02F8538891B
:1051900023333105A1F08F8598898133910591F4EE
:1051A0000E94401787C00E94A91C8091050383308C
:1051B00009F080C0809103038823B9F37BC00E946B
:1051C0008E1A78C08BEB92E00E946F0C80E090E02A
:1051D000AAE7B4E48B879C87AD87BE876B857C8507
:1051E0008D859E8520E030E04AEF54E40E941F0246
:1051F000DC01CB018F839887A987BA876F81788577
:1052000089859A8520E030E040E85FE30E947903D9
:1052100088232CF481E090E09E838D833FC06F81D2
:10522000788589859A8520E03FEF4FE757E40E9413
:10523000190318164CF56B857C858D859E8520E0BD
:1052400030E040E251E40E941F02DC01CB01BC01CE
:10525000CD010E944900DC01CB019E838D830FC0EC
:1052600088EC90E09C838B838B819C810197F1F784
:105270009C838B838D819E8101979E838D838D81FD
:105280009E81009769F714C06F81788589859A851A
:105290000E944900DC01CB019E838D838D819E811C
:1052A0009A83898389819A810197F1F79A83898307
:1052B0000E94E10D60960FB6F894DEBF0FBECDBF21
:1052C000CF91DF910895DF93CF93CDB7DEB781E023
:1052D00064E040E00E946D0F0E947A1681E08093A6
:1052E0000303CF91DF910895DF93CF9300D0CDB723
:1052F000DEB79A83898389810E940D140F900F90E5
:10530000CF91DF910895DF93CF93CDB7DEB72E977E
:105310000FB6F894DEBF0FBECDBF8AEF90E00E94BB
:10532000742980E090E8ABE3B5E48B879C87AD8778
:10533000BE876B857C858D859E8520E030E04AEFB9
:1053400054E40E941F02DC01CB018F839887A98758
:10535000BA876F81788589859A8520E030E040E8BA
:105360005FE30E94790388232CF481E090E09E8320
:105370008D833FC06F81788589859A8520E03FEFD6
:105380004FE757E40E94190318164CF56B857C858E
:105390008D859E8520E030E040E251E40E941F02AE
:1053A000DC01CB01BC01CD010E944900DC01CB0135
:1053B0009E838D830FC088EC90E09C838B838B81D0
:1053C0009C810197F1F79C838B838D819E8101974E
:1053D0009E838D838D819E81009769F714C06F81B4
:1053E000788589859A850E944900DC01CB019E83DE
:1053F0008D838D819E819A83898389819A8101978A
:10540000F1F79A83898381E02E960FB6F894DEBF78
:105410000FBECDBFCF91DF910895DF93CF93CDB76E
:10542000DEB72E970FB6F894DEBF0FBECDBF8BEB65
:1054300090E00E94742980E090E0AAE7B4E48B87B2
:105440009C87AD87BE876B857C858D859E8520E09A
:1054500030E04AEF54E40E941F02DC01CB018F834D
:105460009887A987BA876F81788589859A8520E092
:1054700030E040E85FE30E94790388232CF481E068
:1054800090E09E838D833FC06F81788589859A8562
:1054900020E03FEF4FE757E40E94190318164CF540
:1054A0006B857C858D859E8520E030E040E251E46F
:1054B0000E941F02DC01CB01BC01CD010E9449000A
:1054C000DC01CB019E838D830FC088EC90E09C8330
:1054D0008B838B819C810197F1F79C838B838D81DA
:1054E0009E8101979E838D838D819E81009769F7B0
:1054F00014C06F81788589859A850E944900DC01F6
:10550000CB019E838D838D819E819A83898389813E
:105510009A810197F1F79A83898380E02E960FB6DE
:10552000F894DEBF0FBECDBFCF91DF910895629F8B
:10553000D001739FF001829FE00DF11D649FE00D8B
:10554000F11D929FF00D839FF00D749FF00D659FEC
:10555000F00D9927729FB00DE11DF91F639FB00DEB
:10556000E11DF91FBD01CF0111240895A1E21A2EFA
:10557000AA1BBB1BFD010DC0AA1FBB1FEE1FFF1FF7
:10558000A217B307E407F50720F0A21BB30BE40B47
:10559000F50B661F771F881F991F1A9469F760958E
:1055A0007095809590959B01AC01BD01CF01089548
:1055B00097FB092E05260ED057FD04D0D7DF0AD061
:1055C000001C38F450954095309521953F4F4F4F32
:1055D0005F4F0895F6F790958095709561957F4F90
:1055E0008F4F9F4F08952F923F924F925F926F92ED
:1055F0007F928F929F92AF92BF92CF92DF92EF9263
:10560000FF920F931F93CF93DF93CDB7DEB7CA1BE3
:10561000DB0B0FB6F894DEBF0FBECDBF09942A880E
:10562000398848885F846E847D848C849B84AA84B6
:10563000B984C884DF80EE80FD800C811B81AA8143
:10564000B981CE0FD11D0FB6F894DEBF0FBECDBF0E
:10565000ED010895FB01DC018D910190801901108D
:10566000D9F3990B0895FB01DC0101900D92002004
:10567000E1F70895DC01CB01FC01E199FECF06C002
:10568000FFBBEEBBE09A31960DB20D9241505040F7
:10569000B8F70895DC01CB0103C02D910E94552B72
:1056A00041505040D0F70895262FE199FECF9FBB7F
:1056B0008EBB2DBB0FB6F894E29AE19A0FBE01960D
:0656C0000895F894FFCFED
:1056C6002020202057454C434F4D4521004545504D
:1056D600524F4DA0436C6561726564003129526575
:1056E600676973746572200032294C6F67696E2092
:1056F600332944656C657465004D61782075736562
:10570600727320736176656400656E7465722075C8
:105716007365726E616D653A00656E7465722070B0
:10572600617373776F72643A00416C726561647974
:1057360020736176656421004163636F756E742022
:10574600536176656400656E746572207573657263
:1057560020746F2064656C6574653A0075736572B4
:10576600206E6F7420666F756E64007573657220A7
:1057760064656C65746564004C6F67696E2073754B
:10578600636365737366756C00496E76616C6964F4
:1057960020757365720073797374656D206C6F6321
:1057A6006B65640031294F70656E202020322963B5
:1057B6006C6F73650033294261636B2000416C7224
:1057C60065616479204F70656E65642100416C7275
:1057D6006561647920636C6F7365642100496E7638
:1057E600616C6964204F7074696F6E2100312941C4
:1057F60075746F202032296D616E75616C003329D6
:105806004261636B00496E76616C69642043686F20
:1058160069636521004F4E004F46460074656D7002
:105826003D200046616E3A200031294261636B00DB
:1058360031294F70656E2020203229436C6F7365C5
:1058460000416C726561647920436C6F73656421F5
:10585600003129436F6E74726F6C00322953746184
:10586600747573202033294261636B003129446FBC
:105876006F72202032294C696768740033294661AB
:105886006E20202034294261636B00446F6F7220C2
:105896004C696768742054656D700046616E0049F6
:1058A6006E76616C69642043686F69636500496E52
:1058B60076616C6964204F7074696F6E00312930AF
:1058C6002520322932352520332935302500342943
:1058D60031303025202035296261636B00417574B3
:1058E6006F206C696768743A0061646A75737469DD
:1058F6006E67206C696768742E2E004C49474854C1
:105906003A20202031294175746F0032294D616E8D
:1059160075616C2033294261636B00496E76616C58
:105926006964206D6F6465210000000000000000BE
:0259360000006F
:00000001FF
